{
  "contractName": "TumbulaStore",
  "abi": [
    {
      "constant": true,
      "inputs": [],
      "name": "storeFrontNumber",
      "outputs": [
        {
          "name": "",
          "type": "uint256"
        }
      ],
      "payable": false,
      "stateMutability": "view",
      "type": "function",
      "signature": "0x1b689e8b"
    },
    {
      "constant": true,
      "inputs": [
        {
          "name": "",
          "type": "address"
        },
        {
          "name": "",
          "type": "uint256"
        }
      ],
      "name": "storefrontIds",
      "outputs": [
        {
          "name": "",
          "type": "uint256"
        }
      ],
      "payable": false,
      "stateMutability": "view",
      "type": "function",
      "signature": "0x3db1dbfd"
    },
    {
      "constant": true,
      "inputs": [
        {
          "name": "",
          "type": "uint256"
        }
      ],
      "name": "storefronts",
      "outputs": [
        {
          "name": "id",
          "type": "uint256"
        },
        {
          "name": "storeowner",
          "type": "address"
        },
        {
          "name": "storename",
          "type": "string"
        },
        {
          "name": "storelocation",
          "type": "string"
        },
        {
          "name": "storemerchandise",
          "type": "string"
        }
      ],
      "payable": false,
      "stateMutability": "view",
      "type": "function",
      "signature": "0x6c3aedfb"
    },
    {
      "constant": true,
      "inputs": [
        {
          "name": "",
          "type": "uint256"
        }
      ],
      "name": "products",
      "outputs": [
        {
          "name": "",
          "type": "address"
        }
      ],
      "payable": false,
      "stateMutability": "view",
      "type": "function",
      "signature": "0x7acc0b20"
    },
    {
      "constant": true,
      "inputs": [
        {
          "name": "",
          "type": "uint256"
        }
      ],
      "name": "storeowners",
      "outputs": [
        {
          "name": "id",
          "type": "uint256"
        },
        {
          "name": "storeowneraddress",
          "type": "address"
        },
        {
          "name": "firstname",
          "type": "string"
        },
        {
          "name": "lastname",
          "type": "string"
        },
        {
          "name": "password",
          "type": "string"
        },
        {
          "name": "email",
          "type": "string"
        },
        {
          "name": "role",
          "type": "string"
        },
        {
          "name": "active",
          "type": "bool"
        }
      ],
      "payable": false,
      "stateMutability": "view",
      "type": "function",
      "signature": "0x8a610565"
    },
    {
      "constant": true,
      "inputs": [],
      "name": "storeOwnerNumber",
      "outputs": [
        {
          "name": "",
          "type": "uint256"
        }
      ],
      "payable": false,
      "stateMutability": "view",
      "type": "function",
      "signature": "0xa726f30a"
    },
    {
      "inputs": [],
      "payable": false,
      "stateMutability": "nonpayable",
      "type": "constructor",
      "signature": "constructor"
    },
    {
      "anonymous": false,
      "inputs": [
        {
          "indexed": false,
          "name": "id",
          "type": "uint256"
        },
        {
          "indexed": false,
          "name": "storeowneraddress",
          "type": "address"
        },
        {
          "indexed": false,
          "name": "firstname",
          "type": "string"
        },
        {
          "indexed": false,
          "name": "lastname",
          "type": "string"
        },
        {
          "indexed": false,
          "name": "password",
          "type": "string"
        },
        {
          "indexed": false,
          "name": "email",
          "type": "string"
        },
        {
          "indexed": false,
          "name": "role",
          "type": "string"
        },
        {
          "indexed": false,
          "name": "active",
          "type": "bool"
        }
      ],
      "name": "storeOwnerCreated",
      "type": "event",
      "signature": "0xcd97f319b0838c4ab135ad9bad031c7bb084beb9aedced11dc9e83875e57368c"
    },
    {
      "anonymous": false,
      "inputs": [
        {
          "indexed": false,
          "name": "role_address",
          "type": "address"
        },
        {
          "indexed": false,
          "name": "added_by",
          "type": "address"
        }
      ],
      "name": "roleAdded",
      "type": "event",
      "signature": "0xc91daac650a2962f6712b7ea2b91b57d03046d0f5e6f74225c6d99b435db311c"
    },
    {
      "anonymous": false,
      "inputs": [
        {
          "indexed": false,
          "name": "id",
          "type": "uint256"
        },
        {
          "indexed": false,
          "name": "storeowner",
          "type": "address"
        },
        {
          "indexed": false,
          "name": "storename",
          "type": "string"
        },
        {
          "indexed": false,
          "name": "storelocation",
          "type": "string"
        },
        {
          "indexed": false,
          "name": "storemerchandise",
          "type": "string"
        }
      ],
      "name": "storeFrontCreated",
      "type": "event",
      "signature": "0x846f140bb6ce8522d3684a2d7a3aad94bb9b8c4e41207390b9a6667ca3fee902"
    },
    {
      "anonymous": false,
      "inputs": [
        {
          "indexed": false,
          "name": "product",
          "type": "address"
        },
        {
          "indexed": false,
          "name": "availableStock",
          "type": "uint256"
        },
        {
          "indexed": false,
          "name": "price",
          "type": "uint256"
        },
        {
          "indexed": false,
          "name": "productName",
          "type": "string"
        },
        {
          "indexed": false,
          "name": "shortDescription",
          "type": "string"
        }
      ],
      "name": "productCreated",
      "type": "event",
      "signature": "0xcb4454c9f75f7c4f224ba8cbfc7e2009cfd9bfe533fb35ae33baec4227f59267"
    },
    {
      "anonymous": false,
      "inputs": [
        {
          "indexed": false,
          "name": "product",
          "type": "address"
        },
        {
          "indexed": false,
          "name": "buyer",
          "type": "address"
        },
        {
          "indexed": false,
          "name": "price",
          "type": "uint256"
        },
        {
          "indexed": false,
          "name": "quantity",
          "type": "uint256"
        }
      ],
      "name": "productsBought",
      "type": "event",
      "signature": "0x63dc35ab5de9d27611173a7063178977d3b185916a4fff05f83c07ace07d7c6f"
    },
    {
      "anonymous": false,
      "inputs": [
        {
          "indexed": true,
          "name": "date",
          "type": "uint256"
        },
        {
          "indexed": true,
          "name": "product",
          "type": "address"
        },
        {
          "indexed": false,
          "name": "recipient",
          "type": "address"
        },
        {
          "indexed": false,
          "name": "amount",
          "type": "uint256"
        }
      ],
      "name": "FundWithdrawn",
      "type": "event",
      "signature": "0x1a1e3b27ffc8fbf5f37e5181eedd05effa9d58246409df7ff24b82a8b2056d85"
    },
    {
      "constant": false,
      "inputs": [
        {
          "name": "_address",
          "type": "address"
        }
      ],
      "name": "addAdmin",
      "outputs": [],
      "payable": false,
      "stateMutability": "nonpayable",
      "type": "function",
      "signature": "0x70480275"
    },
    {
      "constant": false,
      "inputs": [
        {
          "name": "_storeowneraddress",
          "type": "address"
        },
        {
          "name": "_firstname",
          "type": "string"
        },
        {
          "name": "_lastname",
          "type": "string"
        },
        {
          "name": "_email",
          "type": "string"
        }
      ],
      "name": "addStoreOwner",
      "outputs": [],
      "payable": false,
      "stateMutability": "nonpayable",
      "type": "function",
      "signature": "0xe95dc1f7"
    },
    {
      "constant": false,
      "inputs": [],
      "name": "toggleEmergency",
      "outputs": [
        {
          "name": "",
          "type": "bool"
        }
      ],
      "payable": false,
      "stateMutability": "nonpayable",
      "type": "function",
      "signature": "0x2d1d2744"
    },
    {
      "constant": false,
      "inputs": [
        {
          "name": "_storename",
          "type": "string"
        },
        {
          "name": "_storelocation",
          "type": "string"
        },
        {
          "name": "_storemerchandise",
          "type": "string"
        }
      ],
      "name": "addStoreFront",
      "outputs": [],
      "payable": false,
      "stateMutability": "nonpayable",
      "type": "function",
      "signature": "0x0eb13ab7"
    },
    {
      "constant": false,
      "inputs": [
        {
          "name": "availableStock",
          "type": "uint256"
        },
        {
          "name": "price",
          "type": "uint256"
        },
        {
          "name": "productName",
          "type": "string"
        },
        {
          "name": "shortDescription",
          "type": "string"
        }
      ],
      "name": "createProduct",
      "outputs": [
        {
          "name": "",
          "type": "bool"
        }
      ],
      "payable": false,
      "stateMutability": "nonpayable",
      "type": "function",
      "signature": "0xfc1c3a2d"
    },
    {
      "constant": false,
      "inputs": [
        {
          "name": "_product",
          "type": "address"
        },
        {
          "name": "_quantity",
          "type": "uint256"
        }
      ],
      "name": "buyProducts",
      "outputs": [],
      "payable": true,
      "stateMutability": "payable",
      "type": "function",
      "signature": "0x1718b22e"
    },
    {
      "constant": false,
      "inputs": [
        {
          "name": "_product",
          "type": "address"
        },
        {
          "name": "_recipient",
          "type": "address"
        },
        {
          "name": "_amount",
          "type": "uint256"
        }
      ],
      "name": "withdrawFund",
      "outputs": [
        {
          "name": "",
          "type": "bool"
        }
      ],
      "payable": false,
      "stateMutability": "nonpayable",
      "type": "function",
      "signature": "0x3ff681e4"
    },
    {
      "constant": true,
      "inputs": [
        {
          "name": "_theAddress",
          "type": "address"
        }
      ],
      "name": "checkAdressRole",
      "outputs": [
        {
          "name": "",
          "type": "uint256"
        }
      ],
      "payable": false,
      "stateMutability": "view",
      "type": "function",
      "signature": "0x750bfb97"
    },
    {
      "constant": true,
      "inputs": [],
      "name": "getProducts",
      "outputs": [
        {
          "name": "",
          "type": "address[]"
        }
      ],
      "payable": false,
      "stateMutability": "view",
      "type": "function",
      "signature": "0xc29b2f20"
    }
  ],
  "bytecode": "0x60806040523480156200001157600080fd5b5062000036336000620000676401000000000262003268179091906401000000009004565b6000600560006101000a81548160ff021916908315150217905550600060028190555060006003819055506200027a565b62000082828262000156640100000000026401000000009004565b151515620000f8576040517f08c379a000000000000000000000000000000000000000000000000000000000815260040180806020018281038252601f8152602001807f526f6c65733a206163636f756e7420616c72656164792068617320726f6c650081525060200191505060405180910390fd5b60018260000160008373ffffffffffffffffffffffffffffffffffffffff1673ffffffffffffffffffffffffffffffffffffffff16815260200190815260200160002060006101000a81548160ff0219169083151502179055505050565b60008073ffffffffffffffffffffffffffffffffffffffff168273ffffffffffffffffffffffffffffffffffffffff161415151562000223576040517f08c379a00000000000000000000000000000000000000000000000000000000081526004018080602001828103825260228152602001807f526f6c65733a206163636f756e7420697320746865207a65726f20616464726581526020017f737300000000000000000000000000000000000000000000000000000000000081525060400191505060405180910390fd5b8260000160008373ffffffffffffffffffffffffffffffffffffffff1673ffffffffffffffffffffffffffffffffffffffff16815260200190815260200160002060009054906101000a900460ff16905092915050565b615b62806200028a6000396000f3fe608060405260043610620000eb576000357c0100000000000000000000000000000000000000000000000000000000900463ffffffff1680630eb13ab714620000f05780631718b22e14620002f35780631b689e8b14620003445780632d1d274414620003725780633db1dbfd14620003a45780633ff681e414620004175780636c3aedfb14620004ae578063704802751462000681578063750bfb9714620006d65780637acc0b20146200073f5780638a61056514620007be578063a726f30a1462000a7a578063c29b2f201462000aa8578063e95dc1f71462000b19578063fc1c3a2d1462000d3c575b600080fd5b348015620000fd57600080fd5b50620002f1600480360360608110156200011657600080fd5b81019080803590602001906401000000008111156200013457600080fd5b8201836020820111156200014757600080fd5b803590602001918460018302840111640100000000831117156200016a57600080fd5b91908080601f016020809104026020016040519081016040528093929190818152602001838380828437600081840152601f19601f82011690508083019250505050505050919291929080359060200190640100000000811115620001ce57600080fd5b820183602082011115620001e157600080fd5b803590602001918460018302840111640100000000831117156200020457600080fd5b91908080601f016020809104026020016040519081016040528093929190818152602001838380828437600081840152601f19601f820116905080830192505050505050509192919290803590602001906401000000008111156200026857600080fd5b8201836020820111156200027b57600080fd5b803590602001918460018302840111640100000000831117156200029e57600080fd5b91908080601f016020809104026020016040519081016040528093929190818152602001838380828437600081840152601f19601f82011690508083019250505050505050919291929050505062000ed1565b005b62000342600480360360408110156200030b57600080fd5b81019080803573ffffffffffffffffffffffffffffffffffffffff16906020019092919080359060200190929190505050620012c1565b005b3480156200035157600080fd5b506200035c6200183b565b6040518082815260200191505060405180910390f35b3480156200037f57600080fd5b506200038a62001841565b604051808215151515815260200191505060405180910390f35b348015620003b157600080fd5b506200040160048036036040811015620003ca57600080fd5b81019080803573ffffffffffffffffffffffffffffffffffffffff1690602001909291908035906020019092919050505062001925565b6040518082815260200191505060405180910390f35b3480156200042457600080fd5b5062000494600480360360608110156200043d57600080fd5b81019080803573ffffffffffffffffffffffffffffffffffffffff169060200190929190803573ffffffffffffffffffffffffffffffffffffffff1690602001909291908035906020019092919050505062001956565b604051808215151515815260200191505060405180910390f35b348015620004bb57600080fd5b50620004eb60048036036020811015620004d457600080fd5b810190808035906020019092919050505062001ccd565b604051808681526020018573ffffffffffffffffffffffffffffffffffffffff1673ffffffffffffffffffffffffffffffffffffffff168152602001806020018060200180602001848103845287818151815260200191508051906020019080838360005b838110156200056d57808201518184015260208101905062000550565b50505050905090810190601f1680156200059b5780820380516001836020036101000a031916815260200191505b50848103835286818151815260200191508051906020019080838360005b83811015620005d6578082015181840152602081019050620005b9565b50505050905090810190601f168015620006045780820380516001836020036101000a031916815260200191505b50848103825285818151815260200191508051906020019080838360005b838110156200063f57808201518184015260208101905062000622565b50505050905090810190601f1680156200066d5780820380516001836020036101000a031916815260200191505b509850505050505050505060405180910390f35b3480156200068e57600080fd5b50620006d460048036036020811015620006a757600080fd5b81019080803573ffffffffffffffffffffffffffffffffffffffff16906020019092919050505062001ef7565b005b348015620006e357600080fd5b506200072960048036036020811015620006fc57600080fd5b81019080803573ffffffffffffffffffffffffffffffffffffffff16906020019092919050505062002058565b6040518082815260200191505060405180910390f35b3480156200074c57600080fd5b506200077c600480360360208110156200076557600080fd5b8101908080359060200190929190505050620020f3565b604051808273ffffffffffffffffffffffffffffffffffffffff1673ffffffffffffffffffffffffffffffffffffffff16815260200191505060405180910390f35b348015620007cb57600080fd5b50620007fb60048036036020811015620007e457600080fd5b810190808035906020019092919050505062002132565b604051808981526020018873ffffffffffffffffffffffffffffffffffffffff1673ffffffffffffffffffffffffffffffffffffffff16815260200180602001806020018060200180602001806020018715151515815260200186810386528c818151815260200191508051906020019080838360005b838110156200088f57808201518184015260208101905062000872565b50505050905090810190601f168015620008bd5780820380516001836020036101000a031916815260200191505b5086810385528b818151815260200191508051906020019080838360005b83811015620008f8578082015181840152602081019050620008db565b50505050905090810190601f168015620009265780820380516001836020036101000a031916815260200191505b5086810384528a818151815260200191508051906020019080838360005b838110156200096157808201518184015260208101905062000944565b50505050905090810190601f1680156200098f5780820380516001836020036101000a031916815260200191505b50868103835289818151815260200191508051906020019080838360005b83811015620009ca578082015181840152602081019050620009ad565b50505050905090810190601f168015620009f85780820380516001836020036101000a031916815260200191505b50868103825288818151815260200191508051906020019080838360005b8381101562000a3357808201518184015260208101905062000a16565b50505050905090810190601f16801562000a615780820380516001836020036101000a031916815260200191505b509d505050505050505050505050505060405180910390f35b34801562000a8757600080fd5b5062000a92620024b3565b6040518082815260200191505060405180910390f35b34801562000ab557600080fd5b5062000ac0620024b9565b6040518080602001828103825283818151815260200191508051906020019060200280838360005b8381101562000b0557808201518184015260208101905062000ae8565b505050509050019250505060405180910390f35b34801562000b2657600080fd5b5062000d3a6004803603608081101562000b3f57600080fd5b81019080803573ffffffffffffffffffffffffffffffffffffffff1690602001909291908035906020019064010000000081111562000b7d57600080fd5b82018360208201111562000b9057600080fd5b8035906020019184600183028401116401000000008311171562000bb357600080fd5b91908080601f016020809104026020016040519081016040528093929190818152602001838380828437600081840152601f19601f8201169050808301925050505050505091929192908035906020019064010000000081111562000c1757600080fd5b82018360208201111562000c2a57600080fd5b8035906020019184600183028401116401000000008311171562000c4d57600080fd5b91908080601f016020809104026020016040519081016040528093929190818152602001838380828437600081840152601f19601f8201169050808301925050505050505091929192908035906020019064010000000081111562000cb157600080fd5b82018360208201111562000cc457600080fd5b8035906020019184600183028401116401000000008311171562000ce757600080fd5b91908080601f016020809104026020016040519081016040528093929190818152602001838380828437600081840152601f19601f82011690508083019250505050505050919291929050505062002549565b005b34801562000d4957600080fd5b5062000eb76004803603608081101562000d6257600080fd5b8101908080359060200190929190803590602001909291908035906020019064010000000081111562000d9457600080fd5b82018360208201111562000da757600080fd5b8035906020019184600183028401116401000000008311171562000dca57600080fd5b91908080601f016020809104026020016040519081016040528093929190818152602001838380828437600081840152601f19601f8201169050808301925050505050505091929192908035906020019064010000000081111562000e2e57600080fd5b82018360208201111562000e4157600080fd5b8035906020019184600183028401116401000000008311171562000e6457600080fd5b91908080601f016020809104026020016040519081016040528093929190818152602001838380828437600081840152601f19601f82011690508083019250505050505050919291929050505062002a42565b604051808215151515815260200191505060405180910390f35b62000ee73360016200307390919063ffffffff16565b151562000f82576040517f08c379a000000000000000000000000000000000000000000000000000000000815260040180806020018281038252602b8152602001807f4f6e6c79207468652073746f7265206f776e65722063616e2063616c6c20746881526020017f69732066756e6374696f6e00000000000000000000000000000000000000000081525060400191505060405180910390fd5b60a06040519081016040528060035481526020013373ffffffffffffffffffffffffffffffffffffffff168152602001848152602001838152602001828152506007600060035481526020019081526020016000206000820151816000015560208201518160010160006101000a81548173ffffffffffffffffffffffffffffffffffffffff021916908373ffffffffffffffffffffffffffffffffffffffff16021790555060408201518160020190805190602001906200104692919062003348565b5060608201518160030190805190602001906200106592919062003348565b5060808201518160040190805190602001906200108492919062003348565b50905050600160035401600381905550600860003373ffffffffffffffffffffffffffffffffffffffff1673ffffffffffffffffffffffffffffffffffffffff16815260200190815260200160002060035490806001815401808255809150509060018203906000526020600020016000909192909190915055507f846f140bb6ce8522d3684a2d7a3aad94bb9b8c4e41207390b9a6667ca3fee90260035433858585604051808681526020018573ffffffffffffffffffffffffffffffffffffffff1673ffffffffffffffffffffffffffffffffffffffff168152602001806020018060200180602001848103845287818151815260200191508051906020019080838360005b83811015620011a95780820151818401526020810190506200118c565b50505050905090810190601f168015620011d75780820380516001836020036101000a031916815260200191505b50848103835286818151815260200191508051906020019080838360005b8381101562001212578082015181840152602081019050620011f5565b50505050905090810190601f168015620012405780820380516001836020036101000a031916815260200191505b50848103825285818151815260200191508051906020019080838360005b838110156200127b5780820151818401526020810190506200125e565b50505050905090810190601f168015620012a95780820380516001836020036101000a031916815260200191505b509850505050505050505060405180910390a1505050565b600560009054906101000a900460ff161515156200136d576040517f08c379a000000000000000000000000000000000000000000000000000000000815260040180806020018281038252603e8152602001807f436f6e74726163742063757272656e746c7920696e20656d657267656e63792081526020017f6d6f64652c2046756e6374696f6e2063616e27742062652063616c6c6564000081525060400191505060405180910390fd5b6000811115156200140c576040517f08c379a00000000000000000000000000000000000000000000000000000000081526004018080602001828103825260248152602001807f456e73757265207175616e746974792069732067726561746572207468616e2081526020017f7a65726f0000000000000000000000000000000000000000000000000000000081525060400191505060405180910390fd5b600082905060008173ffffffffffffffffffffffffffffffffffffffff1663a035b1fe6040518163ffffffff167c010000000000000000000000000000000000000000000000000000000002815260040160206040518083038186803b1580156200147657600080fd5b505afa1580156200148b573d6000803e3d6000fd5b505050506040513d6020811015620014a257600080fd5b8101908080519060200190929190505050905060008273ffffffffffffffffffffffffffffffffffffffff1663d6c14bbc6040518163ffffffff167c010000000000000000000000000000000000000000000000000000000002815260040160206040518083038186803b1580156200151a57600080fd5b505afa1580156200152f573d6000803e3d6000fd5b505050506040513d60208110156200154657600080fd5b81019080805190602001909291905050509050838110151515620015f8576040517f08c379a000000000000000000000000000000000000000000000000000000000815260040180806020018281038252602c8152602001807f456e73757265207175616e74697479206973206c657373207468616e2061766181526020017f696c61626c652053746f636b000000000000000000000000000000000000000081525060400191505060405180910390fd5b6200160d82856200319790919063ffffffff16565b3410151515620016ab576040517f08c379a000000000000000000000000000000000000000000000000000000000815260040180806020018281038252602a8152602001807f456e73757265207072696365207061696420697320656e6f75676820746f206381526020017f6f76657220636f7374730000000000000000000000000000000000000000000081525060400191505060405180910390fd5b8273ffffffffffffffffffffffffffffffffffffffff16631718b22e33866040518363ffffffff167c0100000000000000000000000000000000000000000000000000000000028152600401808373ffffffffffffffffffffffffffffffffffffffff1673ffffffffffffffffffffffffffffffffffffffff16815260200182815260200192505050602060405180830381600087803b1580156200174f57600080fd5b505af115801562001764573d6000803e3d6000fd5b505050506040513d60208110156200177b57600080fd5b8101908080519060200190929190505050507f63dc35ab5de9d27611173a7063178977d3b185916a4fff05f83c07ace07d7c6f83338487604051808573ffffffffffffffffffffffffffffffffffffffff1673ffffffffffffffffffffffffffffffffffffffff1681526020018473ffffffffffffffffffffffffffffffffffffffff1673ffffffffffffffffffffffffffffffffffffffff16815260200183815260200182815260200194505050505060405180910390a15050505050565b60035481565b6000620018593360006200307390919063ffffffff16565b1515620018f4576040517f08c379a00000000000000000000000000000000000000000000000000000000081526004018080602001828103825260258152602001807f4f6e6c79207468652061646d696e2063616e2063616c6c20746869732066756e81526020017f6374696f6e00000000000000000000000000000000000000000000000000000081525060400191505060405180910390fd5b600560009054906101000a900460ff1615600560006101000a81548160ff0219169083151502179055506001905090565b6008602052816000526040600020818154811015156200194157fe5b90600052602060002001600091509150505481565b6000600560009054906101000a900460ff1615151562001a04576040517f08c379a000000000000000000000000000000000000000000000000000000000815260040180806020018281038252603e8152602001807f436f6e74726163742063757272656e746c7920696e20656d657267656e63792081526020017f6d6f64652c2046756e6374696f6e2063616e27742062652063616c6c6564000081525060400191505060405180910390fd5b600073ffffffffffffffffffffffffffffffffffffffff168373ffffffffffffffffffffffffffffffffffffffff161415151562001aaa576040517f08c379a00000000000000000000000000000000000000000000000000000000081526004018080602001828103825260208152602001807f41646d696e732073686f756c64206e6f742062652072656369657069656e747381525060200191505060405180910390fd5b60008211151562001b49576040517f08c379a00000000000000000000000000000000000000000000000000000000081526004018080602001828103825260228152602001807f416d6f756e742073686f756c642062652067726561746572207468616e207a6581526020017f726f00000000000000000000000000000000000000000000000000000000000081525060400191505060405180910390fd5b8373ffffffffffffffffffffffffffffffffffffffff16630cee1725836040518263ffffffff167c010000000000000000000000000000000000000000000000000000000002815260040180828152602001915050602060405180830381600087803b15801562001bb957600080fd5b505af115801562001bce573d6000803e3d6000fd5b505050506040513d602081101562001be557600080fd5b8101908080519060200190929190505050508373ffffffffffffffffffffffffffffffffffffffff16427f1a1e3b27ffc8fbf5f37e5181eedd05effa9d58246409df7ff24b82a8b2056d858585604051808373ffffffffffffffffffffffffffffffffffffffff1673ffffffffffffffffffffffffffffffffffffffff1681526020018281526020019250505060405180910390a38273ffffffffffffffffffffffffffffffffffffffff166108fc839081150290604051600060405180830381858888f1935050505015801562001cc1573d6000803e3d6000fd5b50600190509392505050565b60076020528060005260406000206000915090508060000154908060010160009054906101000a900473ffffffffffffffffffffffffffffffffffffffff1690806002018054600181600116156101000203166002900480601f01602080910402602001604051908101604052809291908181526020018280546001816001161561010002031660029004801562001da95780601f1062001d7d5761010080835404028352916020019162001da9565b820191906000526020600020905b81548152906001019060200180831162001d8b57829003601f168201915b505050505090806003018054600181600116156101000203166002900480601f01602080910402602001604051908101604052809291908181526020018280546001816001161561010002031660029004801562001e4b5780601f1062001e1f5761010080835404028352916020019162001e4b565b820191906000526020600020905b81548152906001019060200180831162001e2d57829003601f168201915b505050505090806004018054600181600116156101000203166002900480601f01602080910402602001604051908101604052809291908181526020018280546001816001161561010002031660029004801562001eed5780601f1062001ec15761010080835404028352916020019162001eed565b820191906000526020600020905b81548152906001019060200180831162001ecf57829003601f168201915b5050505050905085565b62001f0d3360006200307390919063ffffffff16565b151562001fa8576040517f08c379a00000000000000000000000000000000000000000000000000000000081526004018080602001828103825260258152602001807f4f6e6c79207468652061646d696e2063616e2063616c6c20746869732066756e81526020017f6374696f6e00000000000000000000000000000000000000000000000000000081525060400191505060405180910390fd5b62001fbe8160006200326890919063ffffffff16565b7fc91daac650a2962f6712b7ea2b91b57d03046d0f5e6f74225c6d99b435db311c8133604051808373ffffffffffffffffffffffffffffffffffffffff1673ffffffffffffffffffffffffffffffffffffffff1681526020018273ffffffffffffffffffffffffffffffffffffffff1673ffffffffffffffffffffffffffffffffffffffff1681526020019250505060405180910390a150565b6000620020708260006200307390919063ffffffff16565b15620020805760009050620020ee565b620020968260016200307390919063ffffffff16565b15620020a65760019050620020ee565b620020bc8260016200307390919063ffffffff16565b158015620020dd5750620020db8260006200307390919063ffffffff16565b155b15620020ed5760029050620020ee565b5b919050565b6004818154811015156200210357fe5b906000526020600020016000915054906101000a900473ffffffffffffffffffffffffffffffffffffffff1681565b60066020528060005260406000206000915090508060000154908060010160009054906101000a900473ffffffffffffffffffffffffffffffffffffffff1690806002018054600181600116156101000203166002900480601f0160208091040260200160405190810160405280929190818152602001828054600181600116156101000203166002900480156200220e5780601f10620021e2576101008083540402835291602001916200220e565b820191906000526020600020905b815481529060010190602001808311620021f057829003601f168201915b505050505090806003018054600181600116156101000203166002900480601f016020809104026020016040519081016040528092919081815260200182805460018160011615610100020316600290048015620022b05780601f106200228457610100808354040283529160200191620022b0565b820191906000526020600020905b8154815290600101906020018083116200229257829003601f168201915b505050505090806004018054600181600116156101000203166002900480601f016020809104026020016040519081016040528092919081815260200182805460018160011615610100020316600290048015620023525780601f10620023265761010080835404028352916020019162002352565b820191906000526020600020905b8154815290600101906020018083116200233457829003601f168201915b505050505090806005018054600181600116156101000203166002900480601f016020809104026020016040519081016040528092919081815260200182805460018160011615610100020316600290048015620023f45780601f10620023c857610100808354040283529160200191620023f4565b820191906000526020600020905b815481529060010190602001808311620023d657829003601f168201915b505050505090806006018054600181600116156101000203166002900480601f016020809104026020016040519081016040528092919081815260200182805460018160011615610100020316600290048015620024965780601f106200246a5761010080835404028352916020019162002496565b820191906000526020600020905b8154815290600101906020018083116200247857829003601f168201915b5050505050908060070160009054906101000a900460ff16905088565b60025481565b606060048054806020026020016040519081016040528092919081815260200182805480156200253f57602002820191906000526020600020905b8160009054906101000a900473ffffffffffffffffffffffffffffffffffffffff1673ffffffffffffffffffffffffffffffffffffffff1681526020019060010190808311620024f4575b5050505050905090565b6200255f3360006200307390919063ffffffff16565b1515620025fa576040517f08c379a00000000000000000000000000000000000000000000000000000000081526004018080602001828103825260258152602001807f4f6e6c79207468652061646d696e2063616e2063616c6c20746869732066756e81526020017f6374696f6e00000000000000000000000000000000000000000000000000000081525060400191505060405180910390fd5b6101006040519081016040528060025481526020018573ffffffffffffffffffffffffffffffffffffffff1681526020018481526020018381526020016040805190810160405280600a81526020017f64656661756c743132330000000000000000000000000000000000000000000081525081526020018281526020016040805190810160405280600b81526020017f73746f72655f6f776e65720000000000000000000000000000000000000000008152508152602001600115158152506006600060025481526020019081526020016000206000820151816000015560208201518160010160006101000a81548173ffffffffffffffffffffffffffffffffffffffff021916908373ffffffffffffffffffffffffffffffffffffffff16021790555060408201518160020190805190602001906200273e92919062003348565b5060608201518160030190805190602001906200275d92919062003348565b5060808201518160040190805190602001906200277c92919062003348565b5060a08201518160050190805190602001906200279b92919062003348565b5060c0820151816006019080519060200190620027ba92919062003348565b5060e08201518160070160006101000a81548160ff021916908315150217905550905050600160025401600281905550620028008460016200326890919063ffffffff16565b7fcd97f319b0838c4ab135ad9bad031c7bb084beb9aedced11dc9e83875e57368c600254858585856001604051808781526020018673ffffffffffffffffffffffffffffffffffffffff1673ffffffffffffffffffffffffffffffffffffffff16815260200180602001806020018060200180602001806020018715151515815260200186810386528a818151815260200191508051906020019080838360005b83811015620028be578082015181840152602081019050620028a1565b50505050905090810190601f168015620028ec5780820380516001836020036101000a031916815260200191505b50868103855289818151815260200191508051906020019080838360005b83811015620029275780820151818401526020810190506200290a565b50505050905090810190601f168015620029555780820380516001836020036101000a031916815260200191505b508681038452600a8152602001807f64656661756c7431323300000000000000000000000000000000000000000000815250602001868103835288818151815260200191508051906020019080838360005b83811015620029c4578082015181840152602081019050620029a7565b50505050905090810190601f168015620029f25780820380516001836020036101000a031916815260200191505b508681038252600b8152602001807f73746f72655f6f776e65720000000000000000000000000000000000000000008152506020019b50505050505050505050505060405180910390a150505050565b600062002a5a3360016200307390919063ffffffff16565b151562002af5576040517f08c379a000000000000000000000000000000000000000000000000000000000815260040180806020018281038252602b8152602001807f4f6e6c79207468652073746f7265206f776e65722063616e2063616c6c20746881526020017f69732066756e6374696f6e00000000000000000000000000000000000000000081525060400191505060405180910390fd5b600560009054906101000a900460ff1615151562002ba1576040517f08c379a000000000000000000000000000000000000000000000000000000000815260040180806020018281038252603e8152602001807f436f6e74726163742063757272656e746c7920696e20656d657267656e63792081526020017f6d6f64652c2046756e6374696f6e2063616e27742062652063616c6c6564000081525060400191505060405180910390fd5b60008411151562002c40576040517f08c379a00000000000000000000000000000000000000000000000000000000081526004018080602001828103825260218152602001807f50726963652073686f756c642062652067726561746572207468616e207a657281526020017f6f0000000000000000000000000000000000000000000000000000000000000081525060400191505060405180910390fd5b6000835111151562002cba576040517f08c379a00000000000000000000000000000000000000000000000000000000081526004018080602001828103825260168152602001807f54686572652073686f756c642062652061206e616d650000000000000000000081525060200191505060405180910390fd5b6000825111151562002d5a576040517f08c379a00000000000000000000000000000000000000000000000000000000081526004018080602001828103825260238152602001807f54686572652073686f756c6420626520612073686f727420646573637269707481526020017f696f6e000000000000000000000000000000000000000000000000000000000081525060400191505060405180910390fd5b6000338686868662002d6b620033cf565b808673ffffffffffffffffffffffffffffffffffffffff1673ffffffffffffffffffffffffffffffffffffffff1681526020018581526020018481526020018060200180602001838103835285818151815260200191508051906020019080838360005b8381101562002dec57808201518184015260208101905062002dcf565b50505050905090810190601f16801562002e1a5780820380516001836020036101000a031916815260200191505b50838103825284818151815260200191508051906020019080838360005b8381101562002e5557808201518184015260208101905062002e38565b50505050905090810190601f16801562002e835780820380516001836020036101000a031916815260200191505b50975050505050505050604051809103906000f08015801562002eaa573d6000803e3d6000fd5b50905060048190806001815401808255809150509060018203906000526020600020016000909192909190916101000a81548173ffffffffffffffffffffffffffffffffffffffff021916908373ffffffffffffffffffffffffffffffffffffffff160217905550507fcb4454c9f75f7c4f224ba8cbfc7e2009cfd9bfe533fb35ae33baec4227f592678187878787604051808673ffffffffffffffffffffffffffffffffffffffff1673ffffffffffffffffffffffffffffffffffffffff1681526020018581526020018481526020018060200180602001838103835285818151815260200191508051906020019080838360005b8381101562002fbd57808201518184015260208101905062002fa0565b50505050905090810190601f16801562002feb5780820380516001836020036101000a031916815260200191505b50838103825284818151815260200191508051906020019080838360005b838110156200302657808201518184015260208101905062003009565b50505050905090810190601f168015620030545780820380516001836020036101000a031916815260200191505b5097505050505050505060405180910390a16001915050949350505050565b60008073ffffffffffffffffffffffffffffffffffffffff168273ffffffffffffffffffffffffffffffffffffffff161415151562003140576040517f08c379a00000000000000000000000000000000000000000000000000000000081526004018080602001828103825260228152602001807f526f6c65733a206163636f756e7420697320746865207a65726f20616464726581526020017f737300000000000000000000000000000000000000000000000000000000000081525060400191505060405180910390fd5b8260000160008373ffffffffffffffffffffffffffffffffffffffff1673ffffffffffffffffffffffffffffffffffffffff16815260200190815260200160002060009054906101000a900460ff16905092915050565b600080831415620031ac576000905062003262565b60008284029050828482811515620031c057fe5b041415156200325d576040517f08c379a00000000000000000000000000000000000000000000000000000000081526004018080602001828103825260218152602001807f536166654d6174683a206d756c7469706c69636174696f6e206f766572666c6f81526020017f770000000000000000000000000000000000000000000000000000000000000081525060400191505060405180910390fd5b809150505b92915050565b62003274828262003073565b151515620032ea576040517f08c379a000000000000000000000000000000000000000000000000000000000815260040180806020018281038252601f8152602001807f526f6c65733a206163636f756e7420616c72656164792068617320726f6c650081525060200191505060405180910390fd5b60018260000160008373ffffffffffffffffffffffffffffffffffffffff1673ffffffffffffffffffffffffffffffffffffffff16815260200190815260200160002060006101000a81548160ff0219169083151502179055505050565b828054600181600116156101000203166002900490600052602060002090601f016020900481019282601f106200338b57805160ff1916838001178555620033bc565b82800160010185558215620033bc579182015b82811115620033bb5782518255916020019190600101906200339e565b5b509050620033cb9190620033e0565b5090565b60405161272e806200340983390190565b6200340591905b8082111562003401576000816000905550600101620033e7565b5090565b9056fe60806040523480156200001157600080fd5b506040516200272e3803806200272e833981018060405260a08110156200003757600080fd5b8101908080519060200190929190805190602001909291908051906020019092919080516401000000008111156200006e57600080fd5b828101905060208101848111156200008557600080fd5b8151856001820283011164010000000082111715620000a357600080fd5b50509291906020018051640100000000811115620000c057600080fd5b82810190506020810184811115620000d757600080fd5b8151856001820283011164010000000082111715620000f557600080fd5b505092919050505033600360006101000a81548173ffffffffffffffffffffffffffffffffffffffff021916908373ffffffffffffffffffffffffffffffffffffffff16021790555084600460006101000a81548173ffffffffffffffffffffffffffffffffffffffff021916908373ffffffffffffffffffffffffffffffffffffffff160217905550600060078190555060006008819055508260068190555083600581905550836002819055508160099080519060200190620001bc9291906200030f565b5080600a9080519060200190620001d59291906200030f565b50600254600080600360009054906101000a900473ffffffffffffffffffffffffffffffffffffffff1673ffffffffffffffffffffffffffffffffffffffff1673ffffffffffffffffffffffffffffffffffffffff1681526020019081526020016000208190555060025460016000600360009054906101000a900473ffffffffffffffffffffffffffffffffffffffff1673ffffffffffffffffffffffffffffffffffffffff1673ffffffffffffffffffffffffffffffffffffffff1681526020019081526020016000206000600460009054906101000a900473ffffffffffffffffffffffffffffffffffffffff1673ffffffffffffffffffffffffffffffffffffffff1673ffffffffffffffffffffffffffffffffffffffff168152602001908152602001600020819055505050505050620003be565b828054600181600116156101000203166002900490600052602060002090601f016020900481019282601f106200035257805160ff191683800117855562000383565b8280016001018555821562000383579182015b828111156200038257825182559160200191906001019062000365565b5b50905062000392919062000396565b5090565b620003bb91905b80821115620003b75760008160009055506001016200039d565b5090565b90565b61236080620003ce6000396000f3fe60806040526004361061011d576000357c0100000000000000000000000000000000000000000000000000000000900463ffffffff168063095ea7b3146101225780630cee1725146101955780631718b22e146101e857806318160ddd1461025b5780631da98960146102865780632384b94f1461031657806323b872dd14610356578063587380f5146103e9578063661884631461057457806370a08231146105e757806371299e361461064c5780637f7650eb146106a35780638d921130146107335780639fbe99321461078a578063a035b1fe146108c7578063a9059cbb146108f2578063aace52fe14610965578063b60d428814610990578063d6c14bbc146109bb578063d73dd623146109e6578063dd62ed3e14610a59575b600080fd5b34801561012e57600080fd5b5061017b6004803603604081101561014557600080fd5b81019080803573ffffffffffffffffffffffffffffffffffffffff16906020019092919080359060200190929190505050610ade565b604051808215151515815260200191505060405180910390f35b3480156101a157600080fd5b506101ce600480360360208110156101b857600080fd5b8101908080359060200190929190505050610bd0565b604051808215151515815260200191505060405180910390f35b3480156101f457600080fd5b506102416004803603604081101561020b57600080fd5b81019080803573ffffffffffffffffffffffffffffffffffffffff16906020019092919080359060200190929190505050610cbc565b604051808215151515815260200191505060405180910390f35b34801561026757600080fd5b50610270611030565b6040518082815260200191505060405180910390f35b34801561029257600080fd5b5061029b61103a565b6040518080602001828103825283818151815260200191508051906020019080838360005b838110156102db5780820151818401526020810190506102c0565b50505050905090810190601f1680156103085780820380516001836020036101000a031916815260200191505b509250505060405180910390f35b34801561032257600080fd5b5061032b6110d8565b6040518085815260200184815260200183815260200182815260200194505050505060405180910390f35b34801561036257600080fd5b506103cf6004803603606081101561037957600080fd5b81019080803573ffffffffffffffffffffffffffffffffffffffff169060200190929190803573ffffffffffffffffffffffffffffffffffffffff1690602001909291908035906020019092919050505061112c565b604051808215151515815260200191505060405180910390f35b3480156103f557600080fd5b5061055a6004803603608081101561040c57600080fd5b8101908080359060200190929190803590602001909291908035906020019064010000000081111561043d57600080fd5b82018360208201111561044f57600080fd5b8035906020019184600183028401116401000000008311171561047157600080fd5b91908080601f016020809104026020016040519081016040528093929190818152602001838380828437600081840152601f19601f820116905080830192505050505050509192919290803590602001906401000000008111156104d457600080fd5b8201836020820111156104e657600080fd5b8035906020019184600183028401116401000000008311171561050857600080fd5b91908080601f016020809104026020016040519081016040528093929190818152602001838380828437600081840152601f19601f8201169050808301925050505050505091929192905050506114e7565b604051808215151515815260200191505060405180910390f35b34801561058057600080fd5b506105cd6004803603604081101561059757600080fd5b81019080803573ffffffffffffffffffffffffffffffffffffffff169060200190929190803590602001909291905050506116b6565b604051808215151515815260200191505060405180910390f35b3480156105f357600080fd5b506106366004803603602081101561060a57600080fd5b81019080803573ffffffffffffffffffffffffffffffffffffffff169060200190929190505050611948565b6040518082815260200191505060405180910390f35b34801561065857600080fd5b50610661611990565b604051808273ffffffffffffffffffffffffffffffffffffffff1673ffffffffffffffffffffffffffffffffffffffff16815260200191505060405180910390f35b3480156106af57600080fd5b506106b86119b6565b6040518080602001828103825283818151815260200191508051906020019080838360005b838110156106f85780820151818401526020810190506106dd565b50505050905090810190601f1680156107255780820380516001836020036101000a031916815260200191505b509250505060405180910390f35b34801561073f57600080fd5b50610748611a54565b604051808273ffffffffffffffffffffffffffffffffffffffff1673ffffffffffffffffffffffffffffffffffffffff16815260200191505060405180910390f35b34801561079657600080fd5b5061079f611a7a565b604051808673ffffffffffffffffffffffffffffffffffffffff1673ffffffffffffffffffffffffffffffffffffffff1681526020018581526020018481526020018060200180602001838103835285818151815260200191508051906020019080838360005b83811015610821578082015181840152602081019050610806565b50505050905090810190601f16801561084e5780820380516001836020036101000a031916815260200191505b50838103825284818151815260200191508051906020019080838360005b8381101561088757808201518184015260208101905061086c565b50505050905090810190601f1680156108b45780820380516001836020036101000a031916815260200191505b5097505050505050505060405180910390f35b3480156108d357600080fd5b506108dc611bf2565b6040518082815260200191505060405180910390f35b3480156108fe57600080fd5b5061094b6004803603604081101561091557600080fd5b81019080803573ffffffffffffffffffffffffffffffffffffffff16906020019092919080359060200190929190505050611bf8565b604051808215151515815260200191505060405180910390f35b34801561097157600080fd5b5061097a611e18565b6040518082815260200191505060405180910390f35b34801561099c57600080fd5b506109a5611e1e565b6040518082815260200191505060405180910390f35b3480156109c757600080fd5b506109d0611e24565b6040518082815260200191505060405180910390f35b3480156109f257600080fd5b50610a3f60048036036040811015610a0957600080fd5b81019080803573ffffffffffffffffffffffffffffffffffffffff16906020019092919080359060200190929190505050611e2a565b604051808215151515815260200191505060405180910390f35b348015610a6557600080fd5b50610ac860048036036040811015610a7c57600080fd5b81019080803573ffffffffffffffffffffffffffffffffffffffff169060200190929190803573ffffffffffffffffffffffffffffffffffffffff169060200190929190505050612026565b6040518082815260200191505060405180910390f35b600081600160003373ffffffffffffffffffffffffffffffffffffffff1673ffffffffffffffffffffffffffffffffffffffff16815260200190815260200160002060008573ffffffffffffffffffffffffffffffffffffffff1673ffffffffffffffffffffffffffffffffffffffff168152602001908152602001600020819055508273ffffffffffffffffffffffffffffffffffffffff163373ffffffffffffffffffffffffffffffffffffffff167f8c5be1e5ebec7d5bd14f71427d1e84f3dd0314c0f7b2291e5b200ac8c7c3b925846040518082815260200191505060405180910390a36001905092915050565b60008160085410151515610c98576040517f08c379a00000000000000000000000000000000000000000000000000000000081526004018080602001828103825260488152602001807f416d6f756e7420696e2066756e642073686f756c64206265206772656174657281526020017f207468616e206f7220657175616c20746f20616d6f756e7420746f206265207781526020017f697468647261776e00000000000000000000000000000000000000000000000081525060600191505060405180910390fd5b610cad826008546120ad90919063ffffffff16565b60088190555060019050919050565b600081600080600360009054906101000a900473ffffffffffffffffffffffffffffffffffffffff1673ffffffffffffffffffffffffffffffffffffffff1673ffffffffffffffffffffffffffffffffffffffff1681526020019081526020016000205410151515610dbc576040517f08c379a00000000000000000000000000000000000000000000000000000000081526004018080602001828103825260348152602001807f5175616e746974792073686f756c64206265206c6573732074686174206f722081526020017f657175616c20746f20746f74616c537570706c7900000000000000000000000081525060400191505060405180910390fd5b610e2f82600080600360009054906101000a900473ffffffffffffffffffffffffffffffffffffffff1673ffffffffffffffffffffffffffffffffffffffff1673ffffffffffffffffffffffffffffffffffffffff168152602001908152602001600020546120ad90919063ffffffff16565b600080600360009054906101000a900473ffffffffffffffffffffffffffffffffffffffff1673ffffffffffffffffffffffffffffffffffffffff1673ffffffffffffffffffffffffffffffffffffffff16815260200190815260200160002081905550610ee4826000808673ffffffffffffffffffffffffffffffffffffffff1673ffffffffffffffffffffffffffffffffffffffff1681526020019081526020016000205461213890919063ffffffff16565b6000808573ffffffffffffffffffffffffffffffffffffffff1673ffffffffffffffffffffffffffffffffffffffff16815260200190815260200160002081905550610f3b826005546120ad90919063ffffffff16565b600581905550610f6a610f59600654846121c290919063ffffffff16565b60075461213890919063ffffffff16565b600781905550610f99610f88600654846121c290919063ffffffff16565b60085461213890919063ffffffff16565b6008819055508273ffffffffffffffffffffffffffffffffffffffff16600360009054906101000a900473ffffffffffffffffffffffffffffffffffffffff1673ffffffffffffffffffffffffffffffffffffffff167fddf252ad1be2c89b69c2b068fc378daa952ba7f163c4a11628f55a4df523b3ef846040518082815260200191505060405180910390a36001905092915050565b6000600254905090565b600a8054600181600116156101000203166002900480601f0160208091040260200160405190810160405280929190818152602001828054600181600116156101000203166002900480156110d05780601f106110a5576101008083540402835291602001916110d0565b820191906000526020600020905b8154815290600101906020018083116110b357829003601f168201915b505050505081565b600080600080600754935083600854935083611115600360009054906101000a900473ffffffffffffffffffffffffffffffffffffffff16611948565b935083600254935083935093509350935090919293565b60008060008573ffffffffffffffffffffffffffffffffffffffff1673ffffffffffffffffffffffffffffffffffffffff16815260200190815260200160002054821115151561117b57600080fd5b600160008573ffffffffffffffffffffffffffffffffffffffff1673ffffffffffffffffffffffffffffffffffffffff16815260200190815260200160002060003373ffffffffffffffffffffffffffffffffffffffff1673ffffffffffffffffffffffffffffffffffffffff16815260200190815260200160002054821115151561120657600080fd5b600073ffffffffffffffffffffffffffffffffffffffff168373ffffffffffffffffffffffffffffffffffffffff161415151561124257600080fd5b611293826000808773ffffffffffffffffffffffffffffffffffffffff1673ffffffffffffffffffffffffffffffffffffffff168152602001908152602001600020546120ad90919063ffffffff16565b6000808673ffffffffffffffffffffffffffffffffffffffff1673ffffffffffffffffffffffffffffffffffffffff16815260200190815260200160002081905550611326826000808673ffffffffffffffffffffffffffffffffffffffff1673ffffffffffffffffffffffffffffffffffffffff1681526020019081526020016000205461213890919063ffffffff16565b6000808573ffffffffffffffffffffffffffffffffffffffff1673ffffffffffffffffffffffffffffffffffffffff168152602001908152602001600020819055506113f782600160008773ffffffffffffffffffffffffffffffffffffffff1673ffffffffffffffffffffffffffffffffffffffff16815260200190815260200160002060003373ffffffffffffffffffffffffffffffffffffffff1673ffffffffffffffffffffffffffffffffffffffff168152602001908152602001600020546120ad90919063ffffffff16565b600160008673ffffffffffffffffffffffffffffffffffffffff1673ffffffffffffffffffffffffffffffffffffffff16815260200190815260200160002060003373ffffffffffffffffffffffffffffffffffffffff1673ffffffffffffffffffffffffffffffffffffffff168152602001908152602001600020819055508273ffffffffffffffffffffffffffffffffffffffff168473ffffffffffffffffffffffffffffffffffffffff167fddf252ad1be2c89b69c2b068fc378daa952ba7f163c4a11628f55a4df523b3ef846040518082815260200191505060405180910390a3600190509392505050565b6000600254851115156114fc57846005819055505b600084111561150d57836006819055505b60008351111561152f57826009908051906020019061152d92919061228f565b505b6000825111156115515781600a908051906020019061154f92919061228f565b505b7fd50ee4ceeaa6387d71b557329cd0912888db516f987f923133c6836793ab56a76005546006546009600a6040518085815260200184815260200180602001806020018381038352858181546001816001161561010002031660029004815260200191508054600181600116156101000203166002900480156116155780601f106115ea57610100808354040283529160200191611615565b820191906000526020600020905b8154815290600101906020018083116115f857829003601f168201915b50508381038252848181546001816001161561010002031660029004815260200191508054600181600116156101000203166002900480156116985780601f1061166d57610100808354040283529160200191611698565b820191906000526020600020905b81548152906001019060200180831161167b57829003601f168201915b5050965050505050505060405180910390a160019050949350505050565b600080600160003373ffffffffffffffffffffffffffffffffffffffff1673ffffffffffffffffffffffffffffffffffffffff16815260200190815260200160002060008573ffffffffffffffffffffffffffffffffffffffff1673ffffffffffffffffffffffffffffffffffffffff16815260200190815260200160002054905080831015156117c8576000600160003373ffffffffffffffffffffffffffffffffffffffff1673ffffffffffffffffffffffffffffffffffffffff16815260200190815260200160002060008673ffffffffffffffffffffffffffffffffffffffff1673ffffffffffffffffffffffffffffffffffffffff1681526020019081526020016000208190555061185c565b6117db83826120ad90919063ffffffff16565b600160003373ffffffffffffffffffffffffffffffffffffffff1673ffffffffffffffffffffffffffffffffffffffff16815260200190815260200160002060008673ffffffffffffffffffffffffffffffffffffffff1673ffffffffffffffffffffffffffffffffffffffff168152602001908152602001600020819055505b8373ffffffffffffffffffffffffffffffffffffffff163373ffffffffffffffffffffffffffffffffffffffff167f8c5be1e5ebec7d5bd14f71427d1e84f3dd0314c0f7b2291e5b200ac8c7c3b925600160003373ffffffffffffffffffffffffffffffffffffffff1673ffffffffffffffffffffffffffffffffffffffff16815260200190815260200160002060008873ffffffffffffffffffffffffffffffffffffffff1673ffffffffffffffffffffffffffffffffffffffff168152602001908152602001600020546040518082815260200191505060405180910390a3600191505092915050565b60008060008373ffffffffffffffffffffffffffffffffffffffff1673ffffffffffffffffffffffffffffffffffffffff168152602001908152602001600020549050919050565b600360009054906101000a900473ffffffffffffffffffffffffffffffffffffffff1681565b60098054600181600116156101000203166002900480601f016020809104026020016040519081016040528092919081815260200182805460018160011615610100020316600290048015611a4c5780601f10611a2157610100808354040283529160200191611a4c565b820191906000526020600020905b815481529060010190602001808311611a2f57829003601f168201915b505050505081565b600460009054906101000a900473ffffffffffffffffffffffffffffffffffffffff1681565b6000806000606080600360009054906101000a900473ffffffffffffffffffffffffffffffffffffffff1694506005549350600654925060098054600181600116156101000203166002900480601f016020809104026020016040519081016040528092919081815260200182805460018160011615610100020316600290048015611b475780601f10611b1c57610100808354040283529160200191611b47565b820191906000526020600020905b815481529060010190602001808311611b2a57829003601f168201915b50505050509150600a8054600181600116156101000203166002900480601f016020809104026020016040519081016040528092919081815260200182805460018160011615610100020316600290048015611be45780601f10611bb957610100808354040283529160200191611be4565b820191906000526020600020905b815481529060010190602001808311611bc757829003601f168201915b505050505090509091929394565b60065481565b60008060003373ffffffffffffffffffffffffffffffffffffffff1673ffffffffffffffffffffffffffffffffffffffff168152602001908152602001600020548211151515611c4757600080fd5b600073ffffffffffffffffffffffffffffffffffffffff168373ffffffffffffffffffffffffffffffffffffffff1614151515611c8357600080fd5b611cd4826000803373ffffffffffffffffffffffffffffffffffffffff1673ffffffffffffffffffffffffffffffffffffffff168152602001908152602001600020546120ad90919063ffffffff16565b6000803373ffffffffffffffffffffffffffffffffffffffff1673ffffffffffffffffffffffffffffffffffffffff16815260200190815260200160002081905550611d67826000808673ffffffffffffffffffffffffffffffffffffffff1673ffffffffffffffffffffffffffffffffffffffff1681526020019081526020016000205461213890919063ffffffff16565b6000808573ffffffffffffffffffffffffffffffffffffffff1673ffffffffffffffffffffffffffffffffffffffff168152602001908152602001600020819055508273ffffffffffffffffffffffffffffffffffffffff163373ffffffffffffffffffffffffffffffffffffffff167fddf252ad1be2c89b69c2b068fc378daa952ba7f163c4a11628f55a4df523b3ef846040518082815260200191505060405180910390a36001905092915050565b60075481565b60085481565b60055481565b6000611ebb82600160003373ffffffffffffffffffffffffffffffffffffffff1673ffffffffffffffffffffffffffffffffffffffff16815260200190815260200160002060008673ffffffffffffffffffffffffffffffffffffffff1673ffffffffffffffffffffffffffffffffffffffff1681526020019081526020016000205461213890919063ffffffff16565b600160003373ffffffffffffffffffffffffffffffffffffffff1673ffffffffffffffffffffffffffffffffffffffff16815260200190815260200160002060008573ffffffffffffffffffffffffffffffffffffffff1673ffffffffffffffffffffffffffffffffffffffff168152602001908152602001600020819055508273ffffffffffffffffffffffffffffffffffffffff163373ffffffffffffffffffffffffffffffffffffffff167f8c5be1e5ebec7d5bd14f71427d1e84f3dd0314c0f7b2291e5b200ac8c7c3b925600160003373ffffffffffffffffffffffffffffffffffffffff1673ffffffffffffffffffffffffffffffffffffffff16815260200190815260200160002060008773ffffffffffffffffffffffffffffffffffffffff1673ffffffffffffffffffffffffffffffffffffffff168152602001908152602001600020546040518082815260200191505060405180910390a36001905092915050565b6000600160008473ffffffffffffffffffffffffffffffffffffffff1673ffffffffffffffffffffffffffffffffffffffff16815260200190815260200160002060008373ffffffffffffffffffffffffffffffffffffffff1673ffffffffffffffffffffffffffffffffffffffff16815260200190815260200160002054905092915050565b6000828211151515612127576040517f08c379a000000000000000000000000000000000000000000000000000000000815260040180806020018281038252601e8152602001807f536166654d6174683a207375627472616374696f6e206f766572666c6f77000081525060200191505060405180910390fd5b600082840390508091505092915050565b60008082840190508381101515156121b8576040517f08c379a000000000000000000000000000000000000000000000000000000000815260040180806020018281038252601b8152602001807f536166654d6174683a206164646974696f6e206f766572666c6f77000000000081525060200191505060405180910390fd5b8091505092915050565b6000808314156121d55760009050612289565b600082840290508284828115156121e857fe5b04141515612284576040517f08c379a00000000000000000000000000000000000000000000000000000000081526004018080602001828103825260218152602001807f536166654d6174683a206d756c7469706c69636174696f6e206f766572666c6f81526020017f770000000000000000000000000000000000000000000000000000000000000081525060400191505060405180910390fd5b809150505b92915050565b828054600181600116156101000203166002900490600052602060002090601f016020900481019282601f106122d057805160ff19168380011785556122fe565b828001600101855582156122fe579182015b828111156122fd5782518255916020019190600101906122e2565b5b50905061230b919061230f565b5090565b61233191905b8082111561232d576000816000905550600101612315565b5090565b9056fea165627a7a72305820e714cd692b6c3887bb3af3704f7cab4b36b32c7128f36d591b2e014721457c930029a165627a7a72305820e6652752af6e91786883ba5ef499ff770064839cc18f355bbfd67d2779616bed0029",
  "source": "pragma solidity >=0.4.21 <0.6.0;\nimport \"openzeppelin-solidity/contracts/access/Roles.sol\";\nimport \"openzeppelin-solidity/contracts/math/SafeMath.sol\";\nimport {StoreProduct as Product} from \"./StoreProduct.sol\";\n\ncontract TumbulaStore{\n\n    /*\n    Contract for the Tumbula online store.\n\n    ------------------------------------\n    ROLES.\n    1. Admin.\n    2. Store Owner.\n    ------------------------------------\n     */\n    using Roles for Roles.Role;\n    using SafeMath for uint;\n    using SafeMath for uint8;\n\n    Roles.Role private admin;\n    Roles.Role private store_owner;\n    \n\n    uint public storeOwnerNumber;\n    uint public storeFrontNumber;\n\n    /*Products array*/\n    address[] public products;\n\n    /*  */\n\n    /*Boolean value to track emergency mode for circuit breaker pattern */\n    bool private emergency;\n\n    struct StoreOwner{\n        uint    id;\n        address storeowneraddress;\n        string  firstname;\n        string  lastname;\n        string  password;\n        string  email;\n        string  role;\n        bool    active;\n    }\n\n    struct StoreFront{\n        uint    id;\n        address storeowner;\n        string  storename;\n        string  storelocation;\n        string  storemerchandise;\n    }\n\n    mapping(uint => StoreOwner) public storeowners;\n\n    mapping(uint => StoreFront) public storefronts;\n\n    /*Mapping of storefronts to storeowner address */\n    mapping(address => uint[]) public storefrontIds;\n\n    event storeOwnerCreated(\n        uint id,\n        address storeowneraddress,\n        string firstname,\n        string lastname,\n        string password,\n        string email,\n        string role,\n        bool active\n    );\n\n    event roleAdded(\n        address role_address,\n        address added_by\n    );\n\n    event storeFrontCreated(\n        uint   id,\n        address storeowner,\n        string storename,\n        string storelocation,\n        string storemerchandise\n    );\n\n    event productCreated(\n        address product,\n        uint availableStock,\n        uint price,\n        string productName, \n        string shortDescription\n    );\n\n    event productsBought(\n        address product, \n        address buyer,\n        uint price,\n        uint quantity\n    );\n\n    event FundWithdrawn(\n        uint indexed date,\n        address indexed product, \n        address recipient, \n        uint amount\n    );\n\n    /* Modifer that checks if the msg.sender has an admin role */\n    modifier onlyAdmin {\n        require(\n            admin.has(msg.sender),\n            \"Only the admin can call this function\"\n            );\n        _;\n    }\n\n    /* Modifer that checks if the msg.sender has a store owner role */\n    modifier onlyStoreOwner {\n        require(\n            store_owner.has(msg.sender),\n            \"Only the store owner can call this function\"\n            );\n        _;\n    }\n\n    /*Modifier that checks if msg.sender is the productowner of the product */\n    modifier onlyProductOwner(address product) {\n        require(\n            msg.sender == Product(product).storeowner(),\n            \"Only the product owner can call this method\");\n        _;\n    }\n\n\n    /*Circuit breaker pattern modifiers */\n    modifier stopInEmergency { \n        require(!emergency, \"Contract currently in emergency mode, Function can't be called\"); \n        _; \n    }\n    \n    modifier onlyInEmergency { \n        require(emergency, \"Function callable only in emergency mode\"); \n        _;\n    }\n\n    constructor() public {\n        admin.add(msg.sender);\n        emergency = false;\n\n        storeOwnerNumber = 0;\n        storeFrontNumber = 0;\n    }\n    \n    /*\n    --------------------------------------------------------\n    Admin Functions\n    --------------------------------------------------------\n    */\n\n     /** @dev Lets admin add more admins \n     * @return Boolean for testing in solidity\n     */\n    function addAdmin(address _address) public onlyAdmin {\n        admin.add(_address);\n        emit roleAdded(\n            _address,\n            msg.sender\n        );\n    }\n\n    /** @dev Creates a new storeOwner \n     * @param _firstname Firstname of the store owner\n     * @param _lastname last name of the store owner\n     * @param _email Email address of the store owner \n     * @return Boolean for testing in solidity\n     */\n    function addStoreOwner(\n        address _storeowneraddress,\n        string memory _firstname, \n        string memory _lastname, \n        string memory _email\n    ) \n            public \n            onlyAdmin\n\n    {\n        storeowners[storeOwnerNumber] = StoreOwner(storeOwnerNumber, _storeowneraddress, _firstname, _lastname, \"default123\", _email, \"store_owner\", true);\n\n        storeOwnerNumber = storeOwnerNumber + 1;\n\n        //Add the store owner to store owner roles\n        store_owner.add(_storeowneraddress);\n\n        emit storeOwnerCreated(\n            storeOwnerNumber, \n            _storeowneraddress,\n            _firstname, \n            _lastname, \n            \"default123\", \n            _email, \n            \"store_owner\", \n            true\n        );\n    }\n\n    /** @dev Lets admin toggle the state of emergency \n     * @return Boolean for testing in solidity\n     */\n    function toggleEmergency() public onlyAdmin returns (bool) {\n        emergency = !emergency;\n        return true;\n    }\n\n    /*\n    ---------------------------------------------------------------\n    Store Owner Functions\n    ---------------------------------------------------------------\n    */\n\n    /** @dev Adds a new store front \n     * @param _storename Name of the storefront\n     * @param _storelocation Location of the storefront\n     * @param _storemerchandise Type of merchandise dealt in by storefront\n     * @return Boolean for testing in solidity\n     */\n    function addStoreFront(string memory _storename, string memory _storelocation, string memory _storemerchandise\n        ) \n            public \n            onlyStoreOwner\n        {\n        storefronts[storeFrontNumber] = StoreFront(storeFrontNumber, msg.sender, _storename, _storelocation, _storemerchandise);\n        storeFrontNumber = storeFrontNumber + 1;\n        storefrontIds[msg.sender].push(storeFrontNumber);\n        emit storeFrontCreated(\n            storeFrontNumber, \n            msg.sender, \n            _storename, \n            _storelocation, \n            _storemerchandise\n        );\n    }\n\n    /** @dev Creates ERC20 token per product \n     * @param availableStock Quantity of products available for each individual product\n     * @param price Price of each product\n     * @param productName Name of the product \n     * @param shortDescription Short description of the product\n     * @return Boolean for testing in solidity\n     */\n    function createProduct(uint availableStock, uint price, string memory productName, string memory shortDescription) \n        public \n        onlyStoreOwner\n        stopInEmergency\n        returns (bool)\n    {\n        require(price > 0, \"Price should be greater than zero\");\n        require(bytes(productName).length > 0, \"There should be a name\");\n        require(bytes(shortDescription).length > 0, \"There should be a short description\");\n\n        Product product = new Product(msg.sender, availableStock, price, productName, shortDescription);\n        products.push(address(product));\n        \n        emit productCreated(\n            address(product),\n            availableStock,\n            price,\n            productName,\n            shortDescription   \n        );\n        return true;\n    }\n\n    /** @dev Purchases movie tickets\n     * @param _product Address of product token\n     * @param _quantity quantity to be purchased\n     */\n    function buyProducts(address _product, uint _quantity)\n        public \n        payable\n        stopInEmergency\n    {\n        require(_quantity > 0, \"Ensure quantity is greater than zero\");\n        Product product = Product(_product);\n        uint price = product.price();\n        uint availableStock = product.availableStock();\n\n        // check available quantity\n        require(availableStock >= _quantity, \"Ensure quantity is less than available Stock\");\n        \n        // check payment amount\n        require(msg.value >= _quantity.mul(price), \"Ensure price paid is enough to cover costs\");\n        \n        // // check excess payment\n        // uint excess = msg.value.sub(quantity.mul(price));\n        // if (excess > 0) emit ExcessPaid(now, movie, msg.sender, excess);\n        \n        product.buyProducts(msg.sender, _quantity);\n        emit productsBought(address(product), msg.sender, price, _quantity);\n    }\n\n    /** @dev Withdraws from fund \n     * @param _product Address of product token\n     * @param _recipient Address of recipient to be paid\n     * @param _amount Amount in wei to pay\n     * @return Boolean for testing in solidity\n     */\n    function withdrawFund(address _product, address payable _recipient, uint _amount) \n        public \n        stopInEmergency\n        // onlyProductOwner(_product)\n        returns (bool)\n    {\n        require(_recipient != address(0), \"Admins should not be reciepients\");\n        require(_amount > 0, \"Amount should be greater than zero\");\n        \n        Product(_product).withdrawFund(_amount);\n        \n        emit FundWithdrawn(now, _product, _recipient, _amount);\n        _recipient.transfer(_amount);\n        return true;\n    }\n\n\n    /** @dev Checks for the role of a specific address\n     * @param _theAddress Address for which role is to be checked\n     * @return uint indicating specific role\n     */\n\n    function checkAdressRole(address _theAddress) public view returns (uint){\n\n        if (admin.has(_theAddress)) {\n            return 0;\n        }\n\n        if (store_owner.has(_theAddress)) {\n            return 1;\n        }\n\n        if (!store_owner.has(_theAddress) && !admin.has(_theAddress)) {\n            return 2;\n        }\n    }\n\n    /** @dev Returns array of product token addresses\n     * @return Product token addresses\n     */\n    function getProducts() public view returns (address[] memory) {\n        return products;\n    }\n\n}",
  "sourcePath": "/Users/allan-only/projects/blockchain/final_project/tumbula-app/tumbula-store/contracts/TumbulaStore.sol",
  "compiler": {
    "name": "solc",
    "version": "0.5.0+commit.1d4f565a.Emscripten.clang"
  },
  "schemaVersion": "3.0.1",
  "updatedAt": "2019-07-02T14:51:55.277Z",
  "devdoc": {
    "methods": {
      "addAdmin(address)": {
        "details": "Lets admin add more admins ",
        "return": "Boolean for testing in solidity"
      },
      "addStoreFront(string,string,string)": {
        "details": "Adds a new store front ",
        "params": {
          "_storelocation": "Location of the storefront",
          "_storemerchandise": "Type of merchandise dealt in by storefront",
          "_storename": "Name of the storefront"
        },
        "return": "Boolean for testing in solidity"
      },
      "addStoreOwner(address,string,string,string)": {
        "details": "Creates a new storeOwner ",
        "params": {
          "_email": "Email address of the store owner ",
          "_firstname": "Firstname of the store owner",
          "_lastname": "last name of the store owner"
        },
        "return": "Boolean for testing in solidity"
      },
      "buyProducts(address,uint256)": {
        "details": "Purchases movie tickets",
        "params": {
          "_product": "Address of product token",
          "_quantity": "quantity to be purchased"
        }
      },
      "checkAdressRole(address)": {
        "details": "Checks for the role of a specific address",
        "params": {
          "_theAddress": "Address for which role is to be checked"
        },
        "return": "uint indicating specific role"
      },
      "createProduct(uint256,uint256,string,string)": {
        "details": "Creates ERC20 token per product ",
        "params": {
          "availableStock": "Quantity of products available for each individual product",
          "price": "Price of each product",
          "productName": "Name of the product ",
          "shortDescription": "Short description of the product"
        },
        "return": "Boolean for testing in solidity"
      },
      "getProducts()": {
        "details": "Returns array of product token addresses",
        "return": "Product token addresses"
      },
      "toggleEmergency()": {
        "details": "Lets admin toggle the state of emergency ",
        "return": "Boolean for testing in solidity"
      },
      "withdrawFund(address,address,uint256)": {
        "details": "Withdraws from fund ",
        "params": {
          "_amount": "Amount in wei to pay",
          "_product": "Address of product token",
          "_recipient": "Address of recipient to be paid"
        },
        "return": "Boolean for testing in solidity"
      }
    }
  },
  "userdoc": {
    "methods": {}
  }
}